:100000000C9462000C9442060C941B060C948A001B
:100010000C948A000C948A000C948A000C948A0038
:100020000C948A000C948A000C948A000C948A0028
:100030000C948A000C948A000C948A000C948A0018
:100040000C94D1050C948A000C948F060C946906CC
:100050000C948A000C948A000C948A000C948A00F8
:100060000C94C1060C948A000000000023002600B6
:10007000290000000000240027002A0000000008DA
:10008000000201000003040700000000000000005F
:1000900000000000250028002B00040404040404D0
:1000A0000404020202020202030303030303010227
:1000B00004081020408001020408102001020408F6
:1000C0001020BA0711241FBECFEFD4E0DEBFCDBF92
:1000D00011E0A0E0B1E0EEEDF7E102C005900D9275
:1000E000A837B107D9F722E0A8E7B1E001C01D9217
:1000F000A436B207E1F710E0C2E6D0E004C02197D1
:10010000FE010E94B20AC136D107C9F70E948B08CE
:100110000C94ED0B0C9400008093780181E08093A7
:1001200095010895833081F028F4813099F0823070
:10013000A1F008958730A9F08830B9F08430D1F467
:10014000809180008F7D03C0809180008F778093A5
:100150008000089584B58F7702C084B58F7D84BDFB
:1001600008958091B0008F7703C08091B0008F7D9B
:100170008093B00008951F93CF93DF93282F30E032
:10018000F901E458FF4F8491F901E255FF4FD491F2
:10019000F901E656FF4FC491CC23C1F0162F81110F
:1001A0000E949200EC2FF0E0EE0FFF1FE057FF4F90
:1001B000A591B4919FB7F894111104C08C91D0957A
:1001C000D82302C0EC91DE2BDC939FBFDF91CF914F
:1001D0001F910895CF93DF9390E0FC01E255FF4F0C
:1001E0002491FC01E656FF4F8491882361F190E051
:1001F000880F991FFC01EE58FF4FC591D491FC0167
:10020000E057FF4FA591B491611109C09FB7F894D1
:100210008881209582238883EC912E230BC0623045
:1002200061F49FB7F8948881322F309583238883B7
:10023000EC912E2B2C939FBF06C08FB7F894E881CA
:100240002E2B28838FBFDF91CF9108953FB7F8946D
:100250008091910190919201A0919301B0919401AC
:1002600026B5A89B05C02F3F19F00196A11DB11D11
:100270003FBFBA2FA92F982F8827820F911DA11D4C
:10028000B11DBC01CD0142E0660F771F881F991F89
:100290004A95D1F708958F929F92AF92BF92CF92D5
:1002A000DF92EF92FF926B017C010E9426014B01CD
:1002B0005C01C114D104E104F104F1F00E942601B3
:1002C000DC01CB0188199909AA09BB09883E934032
:1002D000A105B10570F321E0C21AD108E108F108C7
:1002E00088EE880E83E0981EA11CB11CC114D104B5
:1002F000E104F10419F7DDCFFF90EF90DF90CF908C
:10030000BF90AF909F908F9008950895CF92DF9205
:10031000EF92FF920F931F93CF93DF936C017A01BB
:100320008B01C0E0D0E0CE15DF0581F0D8016D91E2
:100330008D01D601ED91FC910190F081E02DC60177
:100340000995892B11F02196EECF7E01C701DF912F
:10035000CF911F910F91FF90EF90DF90CF90089574
:10036000089580E090E00895FC01538D448D252F81
:1003700030E0842F90E0821B930B541710F0CF963F
:10038000089501970895FC01918D828D981761F071
:10039000828DDF01A80FB11D5D968C91928D9F5FBC
:1003A0009F73928F90E008958FEF9FEF0895FC0167
:1003B000918D828D981731F0828DE80FF11D858D1A
:1003C00090E008958FEF9FEF0895FC01918D228DAD
:1003D000892F90E0805C9F4F821B91098F73992732
:1003E000089586E991E00E94E50121E0892B09F456
:1003F00020E0822F0895FC01848DDF01A80FB11D3C
:10040000A35ABF4F2C91848D90E001968F7399274A
:10041000848FA689B7892C93A089B1898C91837028
:1004200080648C93938D848D981306C00288F38921
:10043000E02D80818F7D80830895EF92FF920F934E
:100440001F93CF93DF93EC0181E0888F9B8D8C8D80
:10045000981305C0E889F989808185FD26C0F62EAC
:100460000B8D10E00F5F1F4F0F731127E02E8C8D47
:10047000E8120CC00FB607FCFACFE889F989808131
:1004800085FFF5CFCE010E94FB01F1CF8B8DFE01E0
:10049000E80FF11DE35AFF4FF0829FB7F8940B8FDE
:1004A000EA89FB89808180620AC09FB7F894EE894F
:1004B000FF896083E889F989808183708064808303
:1004C0009FBF81E090E0DF91CF911F910F91FF904E
:1004D000EF900895CF93DF93EC01888D8823C9F0C6
:1004E000EA89FB89808185FD05C0A889B9898C913D
:1004F00086FD0FC00FB607FCF5CF808185FFF2CFD8
:10050000A889B9898C9185FFEDCFCE010E94FB01AE
:10051000E7CFDF91CF91089580E090E0892B29F01B
:100520000E94F10181110C9400000895FB01DC018F
:1005300040FF05C002C001900D9201900D92425003
:10054000D0F75040C0F70895FC019091BC009F7017
:10055000906D9093BC0094E68091BC0084FF0CC029
:100560009150D1F79091BC009B7F9093BC009091EB
:10057000BC0094609093BC0010820895FC018389B4
:10058000882349F08189A489B5899BE0899FA00DC2
:10059000B11D112402C0A0E0B0E08C91811104C013
:1005A00081E0808380E003C082E0808381E0129656
:1005B0002D913C9113973787268711969C9111971F
:1005C000990F892B858314968D919D910D90BC91E7
:1005D000A02D82879387A487B587168217821086FD
:1005E000118611828091BC008F70806A8093BC005C
:1005F00008958091B9008E7F8093B9008091B900F1
:100600008D7F8093B900662319F020E931E002C0A4
:1006100024E630E040E050E060E87EE380E090E0F7
:100620000E94880A20513109359527952093B800FA
:100630000895CF93DF93E9E8F0E08491EBEBF0E0ED
:10064000D491E7EAF0E0C491CC23A1F081110E949B
:100650009200EC2FF0E0EE0FFF1FE859FF4FA5913D
:10066000B491EC91ED2391E080E009F490E0692FE2
:10067000782F02C060E070E081E068278DE00E9482
:10068000BB0060E08CE00E94BB0081E080938B01A6
:10069000DF91CF9108958F929F92AF92BF92CF92A8
:1006A000DF92EF92FF920F931F93CF93DF93EC01B2
:1006B0008B014A018B892889821798F080EA96E895
:1006C000A1E0B0E03B89321760F00197A109B109C0
:1006D000C9F7CE010E94A402CE010E94BE0281E0B1
:1006E00086C0D8018C91811150C08114910419F0F9
:1006F000F401D48001C0D12CF80184819581A681B8
:10070000B7818D0D911DA11DB11D8597A105B10565
:1007100008F06AC0CFB6F894AD2CB12C84819581D5
:100720008A0D9B1D0E94C70A7C01CFBE009709F469
:100730005DC0F80144815581628173818A0D9B1DE2
:100740000E949602F401EA0DFB1D9E2D9701319740
:10075000822F891B8D15B0F48081D9018D939D0165
:10076000D80114964D915D916D917C9117974F5FD3
:100770005F4F6F4F7F4F14964D935D936D937C93B6
:100780001797E5CFF801F382E282FFB6F894EB8881
:100790008C899D89009701F13B8928893217E0F403
:1007A0002A894BE050E0B801FBE02F9F800D911D9E
:1007B00011240E9496028B898F5F8B8B8A89482F28
:1007C00050E04F5F5F4F288930E04217530714F421
:1007D0008F5F01C080E08A8BE11003C0CE010E94D0
:1007E000BE02FFBE898103C083E001C084E0DF91C7
:1007F000CF911F910F91FF90EF90DF90CF90BF901E
:10080000AF909F908F900895009769F0FC01019040
:100810000020E9F73197AF01481B590BBC0186E96D
:1008200091E00C94860180E090E008950C9404041B
:100830008F929F92AF92BF920F931F93CF93DF93AC
:10084000CDB7DEB7A1970FB6F894DEBF0FBECDBF10
:1008500019A2423008F44AE08E010F5D1F4F842E2A
:10086000912CA12CB12CA50194010E94660AE62FBF
:10087000B901CA0101501109EA3014F4E05D01C068
:10088000E95CD801EC93232B242B252B61F7C801BD
:100890000E940404A1960FB6F894DEBF0FBECDBF30
:1008A000DF91CF911F910F91BF90AF909F908F904C
:1008B0000895CF92DF92EF92FF92CF93DF936C0176
:1008C000990FEE08FF08F7FE19C06DE286E991E086
:1008D0000E941D02EC0166277727CB016C197D0968
:1008E0008E099F094AE00E9418048C0F9D1FDF911A
:1008F000CF91FF90EF90DF90CF9008954AE0C7012D
:10090000B601DF91CF91FF90EF90DF90CF900C94E4
:1009100018042F923F924F925F926F927F928F9224
:100920009F92AF92BF92CF92DF92EF92FF920F937E
:100930001F93CF93DF93CDB7DEB763970FB6F894CD
:10094000DEBF0FBECDBF698B00915B0210915C02D0
:10095000F8019581911176C090915E02992309F476
:1009600071C024E2C22EC91A0FB607FC08C0CC2001
:1009700009F468C0938D208D291709F463C0882E6F
:1009800081E0F801858380915F0294819801285F5E
:100990003F4F1901981759F061E0811101C060E0E3
:1009A000C1010E94F90280915F02F8018483912CB9
:1009B000A12CB12CD12CE12CF12C9E01245F3F4FB6
:1009C0003B8B2A8B80915E028C869D86AE86BF868D
:1009D000888B26013701C114D104E104F10421F010
:1009E000412C512C3201439480915D0219828A83FB
:1009F00021E130E02C0F3D1F3C832B834D825E8232
:100A00006F82788619861B861A86F801808191810B
:100A1000A281B38188169906AA06BB0619F440E0A4
:100A200050E002C04A895B89BE016F5F7F4FC10100
:100A30000E944B03811104C045284628472811F223
:100A4000F801158263960FB6F894DEBF0FBECDBFD6
:100A5000DF91CF911F910F91FF90EF90DF90CF909A
:100A6000BF90AF909F908F907F906F905F904F90CE
:100A70003F902F900895CF93C82F61E08CE00E94A3
:100A8000BB00C1110DC0EDE7F1E08BE891E02081E2
:100A900031813083218332968E179F07C1F716C0AC
:100AA0008CE191E00E9416046C2F70E080E090E0F1
:100AB0004AE00E94180481E491E00E94040464E684
:100AC00070E080E090E0CF910C944B01CF910895BD
:100AD0000E94E80B0F931F93CF93DF93EC018B8958
:100AE000882349F089890C891D899BE0899F000D25
:100AF000111D112402C000E010E0D8018C91811179
:100B000008C012968D919C911397009711F00E9446
:100B10005F0BD8011996ED91FC911A97309711F05F
:100B200089810995F8012085222369F08981811145
:100B30000AC030E040E050E00FB607FE22C0CA0114
:100B4000B9010E944B018B89882389F08B898150E0
:100B50008B8B8989482F50E04F5F5F4F288930E0A9
:100B60004217530714F48F5F01C080E0898B8B8993
:100B7000882391F0CE01DF91CF911F910F910C94BA
:100B8000BE02A0EABFE00E94A70A61507109810974
:100B90009109C9F20000F9CFDF91CF911F910F9118
:100BA00008951F920F920FB60F9211242F933F9327
:100BB0008F939F93AF93BF9380918D0190918E01FE
:100BC000A0918F01B091900130918C0123E0230F0F
:100BD0002D3720F40196A11DB11D05C026E8230F75
:100BE0000296A11DB11D20938C0180938D019093DD
:100BF0008E01A0938F01B09390018091910190910B
:100C00009201A0919301B09194010196A11DB11D93
:100C10008093910190939201A0939301B0939401DA
:100C2000BF91AF919F918F913F912F910F900FBEE8
:100C30000F901F9018951F920F920FB60F921124CC
:100C40002F933F934F935F936F937F938F939F93D4
:100C5000AF93BF93EF93FF93E0910201F0910301F3
:100C60000995FF91EF91BF91AF919F918F917F91E6
:100C70006F915F914F913F912F910F900FBE0F9009
:100C80001F9018951F920F920FB60F9211242F9359
:100C90003F934F935F936F937F938F939F93AF9304
:100CA000BF93EF93FF93E0910001F091010109954B
:100CB000FF91EF91BF91AF919F918F917F916F9134
:100CC0005F914F913F912F910F900FBE0F901F900A
:100CD00018951F920F920FB60F9211242F933F93E6
:100CE0004F935F936F937F938F939F93AF93BF9334
:100CF000EF93FF9386E991E00E94FB01FF91EF9152
:100D0000BF91AF919F918F917F916F915F914F9123
:100D10003F912F910F900FBE0F901F9018951F922B
:100D20000F920FB60F9211242F938F939F93EF93EF
:100D3000FF93E091A601F091A7018081E091AC01C1
:100D4000F091AD0182FD12C090818091AF018F5F63
:100D50008F732091B001821751F0E091AF01F0E064
:100D6000EA56FE4F958F8093AF0101C08081FF91BD
:100D7000EF919F918F912F910F900FBE0F901F9029
:100D800018951F920F920FB60F9211240F931F9375
:100D90002F933F934F935F936F937F938F939F9383
:100DA000AF93BF93CF93DF93EF93FF93C091330241
:100DB000D09134028091B900887F883261F178F453
:100DC000803139F130F4882309F4B7C0883009F153
:100DD000BCC0883101F1803209F442C0B6C0803411
:100DE00009F48FC068F48033D9F1883309F0ADC0BD
:100DF0008091BC008F7080688093BC001882A5C071
:100E0000803509F45BC08835A1F1883409F09DC0B4
:100E100027C08D8122C04E815F81688579858A8552
:100E20009B85AC85BD85481759076A077B0708F085
:100E300086C02E853F858E819F81A885B985AC01AE
:100E4000BD014F5F5F4F6F4F7F4F4E835F8368875A
:100E50007987F901E80FF91F80818093BB0061C099
:100E60008091B900887F803311F086E067C087E009
:100E700065C04E815F81688579858A859B85AC8553
:100E8000BD85481759076A077B0708F058C04E858B
:100E90005F858E819F81A885B9858C019D010F5F3B
:100EA0001F4F2F4F3F4F0E831F8328873987209175
:100EB000BB00FA01E80FF91F208341C04E815F811A
:100EC000688579858A859B85AC85BD8548175907D6
:100ED0006A077B07B0F44E855F858E819F81A88568
:100EE000B9858C019D010F5F1F4F2F4F3F4F0E8320
:100EF0001F83288739872091BB00FA01E80FF91F6B
:100F000020834E815F81688579858A859B85AC8544
:100F1000BD850197A109B109481759076A077B07E1
:100F200028F48091BC008F70806C04C08091BC005C
:100F30008F7080688093BC0008C088E08983CE01F0
:100F40000E94A402CE010E946A05FF91EF91DF91F9
:100F5000CF91BF91AF919F918F917F916F915F9151
:100F60004F913F912F911F910F910F900FBE0F90B6
:100F70001F901895109299011092980188EE93E0B5
:100F8000A0E0B0E080939A0190939B01A0939C0114
:100F9000B0939D018EE091E090939701809396012C
:100FA00085EC90E09093A3018093A20184EC90E003
:100FB0009093A5018093A40180EC90E09093A70109
:100FC0008093A60181EC90E09093A9018093A80101
:100FD00082EC90E09093AB018093AA0186EC90E0C4
:100FE0009093AD018093AC011092AF011092B001CB
:100FF0001092B1011092B2018091530281117DC013
:101000008FEF9FEFDC018093350290933602A0931F
:101010003702B093380221E02093390210923A024D
:1010200084E690E090933C0280933B0210923D0254
:1010300010923E0220933F0290934102809340021F
:101040008CE290E00E94C70AFC019C01245D3F4FA6
:1010500014821582168217821086128611863B969C
:101060002E173F07A9F7909352028093510284E014
:1010700080934D021092500210924E0210924F0235
:10108000E0ECF0E08491ECEAF0E0E491F0E0EE0FC7
:10109000FF1FE057FF4FA591B491EC91E82BEC9323
:1010A000E1ECF0E08491EDEAF0E0E491F0E0EE0FA5
:1010B000FF1FE057FF4FA591B491EC91E82BEC9303
:1010C00061E08DE392E00E94F9028091BC008460AF
:1010D0008093BC008091BC0081608093BC008091B3
:1010E000BC0080648093BC008DE392E09093340256
:1010F0008093330281E08093530285E392E09093E2
:101100005C0280935B0210925D0210925E0281E0AD
:1011100080935F020895CF93DF93CDB7DEB76097DA
:101120000FB6F894DEBF0FBECDBF789484B5826051
:1011300084BD84B5816084BD85B5826085BD85B57B
:10114000816085BD80916E00816080936E001092F9
:101150008100809181008260809381008091810074
:101160008160809381008091800081608093800005
:101170008091B10084608093B1008091B000816063
:101180008093B00080917A00846080937A0080918F
:101190007A00826080937A0080917A0081608093E7
:1011A0007A0080917A00806880937A001092C10062
:1011B000E091A601F091A70182E08083E091A20175
:1011C000F091A3011082E091A401F091A50180E1CA
:1011D00080831092AE01E091AA01F091AB0186E00C
:1011E0008083E091A801F091A901808180618083D2
:1011F000E091A801F091A901808188608083E0914D
:10120000A801F091A901808180688083E091A80104
:10121000F091A90180818F7D808388E680935D02B3
:1012200081E080935E0280935F02E0915B02F09127
:101230005C0284E690E0978386839487838767E0E7
:1012400089E10E94890462E08AE10E94890469E0E0
:101250008BE60E94890460E987E30E94890468E0C4
:101260008BE10E94890468E08CE10E94890461E0BE
:1012700088E30E94890461E08DE00E94EA0061E059
:101280008CE00E94EA0062E082E00E94EA0089E1CC
:1012900093E09093010180930001809169008C7F1D
:1012A000826080936900E89A332433948DE7E82EB6
:1012B00081E0F82E9EE0892E912CA12CB12C2BE3FD
:1012C000C22E25E0D22E3BE3432E512C612C712CF3
:1012D00080918B01882309F464C000915B02109116
:1012E0005C02F801858181115AC080915E028823D9
:1012F00009F455C00FB607FC12C080819181A2810C
:10130000B381CB97A105B10511F092E001C091E046
:10131000F801238D808D821B891708F440C0F801E5
:10132000358280915F029481981761F061E08111AC
:1013300001C060E0C80108960E94F90280915F0236
:10134000F8018483F80180819181A281B381CB97D8
:10135000A105B10509F4A1C080915D0219828A83BB
:101360001C821B821D821E821F82188619861B8684
:101370001A8680915E024C865D866E867F86888B9B
:10138000AE01445F5F4FBE016F5F7F4FC80108969B
:101390000E944B03882309F480C0F8011582109243
:1013A0008B012FB7F89480918D0190918E01A091BF
:1013B0008F01B09190012FBF4091790150917A0136
:1013C00060917B0170917C01841B950BA60BB70B80
:1013D0000B97A105B10508F45DC02FB7F894809173
:1013E0008D0190918E01A0918F01B09190012FBF3E
:1013F0008093790190937A01A0937B01B0937C0153
:1014000084E491E00E94160480917D0190917E0118
:101410000E9459048AE491E00E94160480917F01A1
:10142000909180010E94590481E591E00E94160488
:1014300080918101909182010E94590488E591E098
:101440000E94160480918301909184010E945904A6
:101450008FE591E00E9416048091850190918601AC
:101460000E94590487E691E00E941604809187014A
:10147000909188010E9459048FE691E00E94160421
:101480008091890190918A010E94590481E491E040
:101490000E9404040E948C021BCF1092950180913F
:1014A0005D0239828A83FC82EB828D829E82AF82CA
:1014B000B8861986DB86CA8640E050E0BE016F5FC1
:1014C0007F4FC80108960E944B0367CFA1E21A2EF6
:1014D000AA1BBB1BFD010DC0AA1FBB1FEE1FFF1FD8
:1014E000A217B307E407F50720F0A21BB30BE40B28
:1014F000F50B661F771F881F991F1A9469F760956F
:101500007095809590959B01AC01BD01CF01089528
:10151000052E97FB1EF400940E949F0A57FD07D0EA
:101520000E94660A07FC03D04EF40C949F0A509563
:101530004095309521953F4F4F4F5F4F08959095BF
:101540008095709561957F4F8F4F9F4F08950E94B2
:10155000B80AA59F900DB49F900DA49F800D911D7A
:1015600011240895EE0FFF1F0590F491E02D0994CA
:10157000A29FB001B39FC001A39F700D811D1124D4
:10158000911DB29F700D811D1124911D08950F931F
:101590001F93CF93DF938230910510F482E090E0A7
:1015A000E0916202F091630220E030E0A0E0B0E060
:1015B000309719F1408151810281138148175907F1
:1015C000C8F08417950769F4109731F012960C93C0
:1015D000129713961C9327C0009362021093630224
:1015E00022C02115310519F04217530718F49A014A
:1015F000BD01EF01DF01F801DBCF21153105F9F065
:10160000281B390B2430310580F48A819B816115B8
:10161000710521F0FB019383828304C090936302E0
:1016200080936202FE01329644C0FE01E20FF31F76
:101630008193919322503109398328833AC02091B4
:10164000600230916102232B41F420910601309118
:1016500007013093610220936002209104013091D0
:1016600005012115310541F42DB73EB74091080120
:1016700050910901241B350BE0916002F091610249
:10168000E217F307A0F42E1B3F0B2817390778F059
:10169000AC014E5F5F4F2417350748F04E0F5F1FB8
:1016A00050936102409360028193919302C0E0E005
:1016B000F0E0CF01DF91CF911F910F910895CF936B
:1016C000DF93009709F481C0FC01329713821282E4
:1016D000A0916202B0916302109781F42081318160
:1016E000820F931F20916002309161022817390701
:1016F00051F5F0936102E093600267C0ED0120E0D4
:1017000030E0CE17DF0740F44A815B819E0141152E
:101710005105F1F0EA01F5CFD383C28340815181B5
:10172000840F951FC817D90759F488819981840FB0
:10173000951F0296918380838A819B819383828304
:101740002115310529F4F0936302E09362023DC054
:10175000E901FB83EA8349915991C40FD51FEC1726
:10176000FD0761F480819181840F951F0296E90144
:1017700099838883828193819B838A83E0E0F0E070
:1017800012968D919C911397009719F0FD01DC0141
:10179000F7CF8D919C9111979D012E5F3F4F820F46
:1017A000931F20916002309161022817390769F474
:1017B000309729F4109263021092620202C01382E1
:1017C0001282B0936102A0936002DF91CF910895DD
:0E17D00081E090E0F8940C94ED0BF894FFCFBC
:1017DE0085018501000064028000000000001D02EA
:1017EE008601B4016A02E501C301D7015B52784359
:1017FE00616C6C6261636B5D436F6D6D756E696379
:10180E006174696F6E2053746174757320233A206E
:10181E00000D0A00616363583D0009616363593D21
:10182E0000096163635A3D000954656D703D0009FE
:10183E006779726F583D00096779726F593D0009DB
:08184E006779726F5A3D00003A
:00000001FF
