:100000000C9453000C946D050C9446050C947B00E5
:100010000C947B000C947B000C947B000C947B0074
:100020000C947B000C947B000C947B000C947B0064
:100030000C947B000C947B000C947B000C947B0054
:100040000C94FC040C947B000C94BA050C9494055D
:100050000C947B000C947B000C947B000C947B0034
:100060000C94EC050C947B00000000002400270099
:100070002A0000000000250028002B0004040404CE
:100080000404040402020202020203030303030342
:10009000010204081020408001020408102001021F
:1000A00004081020E50611241FBECFEFD4E0DEBF08
:1000B000CDBF11E0A0E0B1E0E0E6F6E102C00590BE
:1000C0000D92A837B107D9F722E0A8E7B1E001C047
:1000D0001D92A436B207E1F710E0C3E5D0E004C0FA
:1000E0002197FE010E94F309C235D107C9F70E948A
:1000F000B5070C942E0B0C9400008093780181E0DE
:100100008093950108953FB7F89480919101909163
:100110009201A0919301B091940126B5A89B05C0CE
:100120002F3F19F00196A11DB11D3FBFBA2FA92F76
:10013000982F8827820F911DA11DB11DBC01CD01F3
:1001400042E0660F771F881F991F4A95D1F70895DF
:100150008F929F92AF92BF92CF92DF92EF92FF92D7
:100160006B017C010E9483004B015C01C114D1042E
:10017000E104F104F1F00E948300DC01CB01881955
:100180009909AA09BB09883E9340A105B10570F3FE
:1001900021E0C21AD108E108F10888EE880E83E058
:1001A000981EA11CB11CC114D104E104F10419F77B
:1001B000DDCFFF90EF90DF90CF90BF90AF909F90FA
:1001C0008F90089581E08093790108950895CF92EA
:1001D000DF92EF92FF920F931F93CF93DF936C0107
:1001E0007A018B01C0E0D0E0CE15DF0581F0D801A7
:1001F0006D918D01D601ED91FC910190F081E02D82
:10020000C6010995892B11F02196EECF7E01C70119
:10021000DF91CF911F910F91FF90EF90DF90CF90E2
:100220000895089580E090E00895FC01538D448D79
:10023000252F30E0842F90E0821B930B541710F091
:10024000CF96089501970895FC01918D828D98179E
:1002500061F0828DDF01A80FB11D5D968C91928DAA
:100260009F5F9F73928F90E008958FEF9FEF0895A7
:10027000FC01918D828D981731F0828DE80FF11D70
:10028000858D90E008958FEF9FEF0895FC01918D8B
:10029000228D892F90E0805C9F4F821B91098F7384
:1002A0009927089586E991E00E94460121E0892B73
:1002B00009F420E0822F0895FC01848DDF01A80F4E
:1002C000B11DA35ABF4F2C91848D90E001968F737E
:1002D0009927848FA689B7892C93A089B1898C919D
:1002E000837080648C93938D848D981306C00288EC
:1002F000F389E02D80818F7D80830895EF92FF92B6
:100300000F931F93CF93DF93EC0181E0888F9B8D38
:100310008C8D981305C0E889F989808185FD26C0F8
:10032000F62E0B8D10E00F5F1F4F0F731127E02E7D
:100330008C8DE8120CC00FB607FCFACFE889F9895A
:10034000808185FFF5CFCE010E945C01F1CF8B8DBE
:10035000FE01E80FF11DE35AFF4FF0829FB7F894BA
:100360000B8FEA89FB89808180620AC09FB7F8946D
:10037000EE89FF896083E889F989808183708064D0
:1003800080839FBF81E090E0DF91CF911F910F911B
:10039000FF90EF900895CF93DF93EC01888D882331
:1003A000C9F0EA89FB89808185FD05C0A889B989E2
:1003B0008C9186FD0FC00FB607FCF5CF808185FFBD
:1003C000F2CFA889B9898C9185FFEDCFCE010E942B
:1003D0005C01E7CFDF91CF91089580E090E0892B19
:1003E00029F00E94520181110C9400000895FB0134
:1003F000DC0140FF05C002C001900D9201900D92FA
:100400004250D0F75040C0F70895FC019091BC00D5
:100410009F70906D9093BC0094E68091BC0084FF27
:100420000CC09150D1F79091BC009B7F9093BC0081
:100430009091BC0094609093BC0010820895FC01E0
:100440008389882349F08189A489B5899BE0899FA4
:10045000A00DB11D112402C0A0E0B0E08C9181116B
:1004600004C081E0808380E003C082E0808381E07B
:1004700012962D913C9113973787268711969C9160
:100480001197990F892B858314968D919D910D90CD
:10049000BC91A02D82879387A487B5871682178287
:1004A0001086118611828091BC008F70806A8093C3
:1004B000BC0008958091B9008E7F8093B90080912F
:1004C000B9008D7F8093B900662319F020E931E0EF
:1004D00002C024E630E040E050E060E87EE380E0E7
:1004E00090E00E94C9092051310935952795209344
:1004F000B80008958F929F92AF92BF92CF92DF92F1
:10050000EF92FF920F931F93CF93DF93EC018B0138
:100510004A018B892889821798F080EA96E8A1E041
:10052000B0E03B89321760F00197A109B109C9F722
:10053000CE010E940502CE010E941F0281E086C00A
:10054000D8018C91811150C08114910419F0F401EB
:10055000D48001C0D12CF80184819581A681B78116
:100560008D0D911DA11DB11D8597A105B10508F047
:100570006AC0CFB6F894AD2CB12C848195818A0DD8
:100580009B1D0E94080A7C01CFBE009709F45DC044
:10059000F80144815581628173818A0D9B1D0E94FF
:1005A000F701F401EA0DFB1D9E2D97013197822F73
:1005B000891B8D15B0F48081D9018D939D01D801DF
:1005C00014964D915D916D917C9117974F5F5F4FA0
:1005D0006F4F7F4F14964D935D936D937C93179758
:1005E000E5CFF801F382E282FFB6F894EB888C89BC
:1005F0009D89009701F13B8928893217E0F42A8907
:100600004BE050E0B801FBE02F9F800D911D1124BD
:100610000E94F7018B898F5F8B8B8A89482F50E06E
:100620004F5F5F4F288930E04217530714F48F5F04
:1006300001C080E08A8BE11003C0CE010E941F023E
:10064000FFBE898103C083E001C084E0DF91CF91C8
:100650001F910F91FF90EF90DF90CF90BF90AF90E0
:100660009F908F900895009769F0FC010190002001
:10067000E9F73197AF01481B590BBC0186E991E0BE
:100680000C94E70080E090E008958F929F92AF92E3
:10069000BF920F931F93CF93DF93CDB7DEB7A19790
:1006A0000FB6F894DEBF0FBECDBF19A2423008F4DA
:1006B0004AE08E010F5D1F4F842E912CA12CB12C8E
:1006C000A50194010E94A709E62FB901CA010150B2
:1006D0001109EA3014F4E05D01C0E95CD801EC9343
:1006E000232B242B252B61F7C8010E943303A196ED
:1006F0000FB6F894DEBF0FBECDBFDF91CF911F9133
:100700000F91BF90AF909F908F9008950C943303FA
:10071000CF92DF92EF92FF92CF93DF936C01990F0C
:10072000EE08FF08F7FE19C06DE286E991E00E942D
:100730007E01EC0166277727CB016C197D098E09B4
:100740009F094AE00E9445038C0F9D1FDF91CF91C6
:10075000FF90EF90DF90CF9008954AE0C701B60177
:10076000DF91CF91FF90EF90DF90CF900C944503F5
:100770002F923F924F925F926F927F928F929F92B1
:10078000AF92BF92CF92DF92EF92FF920F931F939F
:10079000CF93DF93CDB7DEB763970FB6F894DEBF84
:1007A0000FBECDBF698B00915E0210915F02F80110
:1007B0009581911176C090913402992309F471C00A
:1007C00024E2C22EC91A0FB607FC08C0CC2009F4D7
:1007D00068C0938D208D291709F463C0882E81E0AD
:1007E000F80185838091350294819801285F3F4FFD
:1007F0001901981759F061E0811101C060E0C10151
:100800000E945A0280913502F8018483912CA12C18
:10081000B12CD12CE12CF12C9E01245F3F4F3B8B5E
:100820002A8B809134028C869D86AE86BF86888B0B
:1008300026013701C114D104E104F10421F0412C57
:10084000512C320143948091330219828A8321E131
:1008500030E02C0F3D1F3C832B834D825E826F82E4
:10086000788619861B861A86F80180819181A2817B
:10087000B38188169906AA06BB0619F440E050E039
:1008800002C04A895B89BE016F5F7F4FC1010E9430
:100890007A02811104C045284628472811F2F80140
:1008A000158263960FB6F894DEBF0FBECDBFDF9101
:1008B000CF911F910F91FF90EF90DF90CF90BF905D
:1008C000AF909F908F907F906F905F904F903F90F0
:1008D0002F900895CF9381110DC0EAE7F1E088E8E9
:1008E00091E0208131813083218332968E179F07DA
:1008F000C1F717C0C82F8CE191E00E9486036C2FCE
:1009000070E080E090E04AE00E94450381E491E0DD
:100910000E94330364E670E080E090E0CF910C9495
:10092000A800CF9108950E94290B0F931F93CF9396
:10093000DF93EC018B89882349F089890C891D8913
:100940009BE0899F000D111D112402C000E010E002
:10095000D8018C91811108C012968D919C911397AA
:10096000009711F00E94A00AD8011996ED91FC9110
:100970001A97309711F089810995F8012085222373
:1009800069F0898181110AC030E040E050E00FB683
:1009900007FE22C0CA01B9010E94A8008B898823E2
:1009A00089F08B8981508B8B8989482F50E04F5F6C
:1009B0005F4F288930E04217530714F48F5F01C05E
:1009C00080E0898B8B89882391F0CE01DF91CF91D4
:1009D0001F910F910C941F02A0EABFE00E94E8094A
:1009E0006150710981099109C9F20000F9CFDF91C5
:1009F000CF911F910F9108951F920F920FB60F92F2
:100A000011242F933F938F939F93AF93BF93809124
:100A10008D0190918E01A0918F01B0919001309144
:100A20008C0123E0230F2D3720F40196A11DB11D69
:100A300005C026E8230F0296A11DB11D20938C014D
:100A400080938D0190938E01A0938F01B0939001BC
:100A50008091910190919201A0919301B0919401A4
:100A60000196A11DB11D8093910190939201A093D5
:100A70009301B0939401BF91AF919F918F913F915A
:100A80002F910F900FBE0F901F9018951F920F92ED
:100A90000FB60F9211242F933F934F935F936F9351
:100AA0007F938F939F93AF93BF93EF93FF93E091C7
:100AB0000201F09103010995FF91EF91BF91AF9170
:100AC0009F918F917F916F915F914F913F912F9166
:100AD0000F900FBE0F901F9018951F920F920FB698
:100AE0000F9211242F933F934F935F936F937F93B4
:100AF0008F939F93AF93BF93EF93FF93E091000188
:100B0000F09101010995FF91EF91BF91AF919F91F4
:100B10008F917F916F915F914F913F912F910F90A6
:100B20000FBE0F901F9018951F920F920FB60F9245
:100B300011242F933F934F935F936F937F938F93E2
:100B40009F93AF93BF93EF93FF9386E991E00E9449
:100B50005C01FF91EF91BF91AF919F918F917F9138
:100B60006F915F914F913F912F910F900FBE0F901A
:100B70001F9018951F920F920FB60F9211242F936A
:100B80008F939F93EF93FF93E091A601F091A701BC
:100B90008081E091AC01F091AD0182FD12C09081A5
:100BA0008091AF018F5F8F732091B001821751F058
:100BB000E091AF01F0E0EA56FE4F958F8093AF01D0
:100BC00001C08081FF91EF919F918F912F910F90A4
:100BD0000FBE0F901F9018951F920F920FB60F9295
:100BE00011240F931F932F933F934F935F936F9312
:100BF0007F938F939F93AF93BF93CF93DF93EF93A5
:100C0000FF93C0913602D09137028091B900887F5E
:100C1000883261F178F4803139F130F4882309F4B5
:100C2000B7C0883009F1BCC0883101F1803209F4C5
:100C300042C0B6C0803409F48FC068F48033D9F163
:100C4000883309F0ADC08091BC008F7080688093BC
:100C5000BC001882A5C0803509F45BC08835A1F1BD
:100C6000883409F09DC027C08D8122C04E815F81EC
:100C7000688579858A859B85AC85BD854817590728
:100C80006A077B0708F086C02E853F858E819F818D
:100C9000A885B985AC01BD014F5F5F4F6F4F7F4F96
:100CA0004E835F8368877987F901E80FF91F808198
:100CB0008093BB0061C08091B900887F803311F0C0
:100CC00086E067C087E065C04E815F816885798571
:100CD0008A859B85AC85BD85481759076A077B07C0
:100CE00008F058C04E855F858E819F81A885B985A3
:100CF0008C019D010F5F1F4F2F4F3F4F0E831F83AE
:100D0000288739872091BB00FA01E80FF91F20835B
:100D100041C04E815F81688579858A859B85AC85D8
:100D2000BD85481759076A077B07B0F44E855F8574
:100D30008E819F81A885B9858C019D010F5F1F4F12
:100D40002F4F3F4F0E831F83288739872091BB0089
:100D5000FA01E80FF91F20834E815F81688579854C
:100D60008A859B85AC85BD850197A109B109481786
:100D700059076A077B0728F48091BC008F70806C4C
:100D800004C08091BC008F7080688093BC0008C054
:100D900088E08983CE010E940502CE010E9495045D
:100DA000FF91EF91DF91CF91BF91AF919F918F9183
:100DB0007F916F915F914F913F912F911F910F9173
:100DC0000F900FBE0F901F901895109299011092DE
:100DD000980188EE93E0A0E0B0E080939A019093B0
:100DE0009B01A0939C01B0939D018EE091E09093B4
:100DF00097018093960185EC90E09093A3018093F6
:100E0000A20184EC90E09093A5018093A40180EC72
:100E100090E09093A7018093A60181EC90E09093DD
:100E2000A9018093A80182EC90E09093AB0180939C
:100E3000AA0186EC90E09093AD018093AC011092F2
:100E4000AF011092B0011092B1011092B201109254
:100E500033021092340281E0809335029091560261
:100E600091117CC04FEF5FEFBA014093380250936D
:100E7000390260933A0270933B0280933C021092D5
:100E80003D0224E630E030933F0220933E02109270
:100E90004002109241028093420230934402209318
:100EA00043028CE290E00E94080AFC019C01245D50
:100EB0003F4F148215821682178210861286118681
:100EC0003B962E173F07A9F7909355028093540243
:100ED00084E08093500210925302109251021092BB
:100EE0005202E2EAF0E08491EEE8F0E0E491F0E012
:100EF000EE0FFF1FEE58FF4FA591B491EC91E82B38
:100F0000EC93E3EAF0E08491EFE8F0E0E491F0E0C4
:100F1000EE0FFF1FEE58FF4FA591B491EC91E82B17
:100F2000EC9361E080E492E00E945A028091BC0060
:100F300084608093BC008091BC0081608093BC0081
:100F40008091BC0080648093BC0080E492E0909328
:100F500037028093360281E08093560288E392E064
:100F600090935F0280935E020895CF93DF93CDB795
:100F7000DEB760970FB6F894DEBF0FBECDBF789492
:100F800084B5826084BD84B5816084BD85B582608E
:100F900085BD85B5816085BD80916E00816080933F
:100FA0006E001092810080918100826080938100A8
:100FB00080918100816080938100809180008160B8
:100FC000809380008091B10084608093B100809113
:100FD000B00081608093B00080917A00846080933B
:100FE0007A0080917A00826080937A0080917A0002
:100FF000816080937A0080917A00806880937A0083
:101000001092C100E091A601F091A70182E08083D7
:10101000E091A201F091A3011082E091A401F0916E
:10102000A50180E180831092AE01E091AA01F091C8
:10103000AB0186E08083E091A801F091A901808155
:1010400080618083E091A801F091A901808188608E
:101050008083E091A801F091A9018081806880835C
:10106000E091A801F091A90180818F7D808388E6BD
:101070008093330281E08093340280933502E091C3
:101080005E02F0915F0284E690E097838683948706
:10109000838767E089E10E94B80362E08AE10E94E9
:1010A000B80369E08BE60E94B80360E987E30E9419
:1010B000B80368E08BE10E94B80368E08CE10E940D
:1010C000B80361E088E30E94B80310927901E2E975
:1010D000F0E02491EEE7F0E084918823C9F090E0FD
:1010E000880F991FFC01E859FF4F45915491FC016D
:1010F000EE58FF4FA591B4919FB7F894FA01808103
:10110000322F309583238083EC91E22BEC939FBFA9
:1011100082EE90E09093010180930001809169003C
:101120008C7F826080936900E89A332433948AE745
:10113000E82E81E0F82E9EE0892E912CA12CB12C76
:101140002AE6C22E24E0D22E3BE3432E512C612C02
:10115000712C80917901882309F464C000915E02AA
:1011600010915F02F801858181115AC0809134028B
:10117000882309F455C00FB607FC12C08081918105
:10118000A281B381CB97A105B10511F092E001C016
:1011900091E0F801238D808D821B891708F440C0EF
:1011A000F8013582809135029481981761F061E0F1
:1011B000811101C060E0C80108960E945A02809126
:1011C0003502F8018483F80180819181A281B38185
:1011D000CB97A105B10509F4A1C080913302198212
:1011E0008A831C821B821D821E821F82188619869A
:1011F0001B861A86809134024C865D866E867F86B9
:10120000888BAE01445F5F4FBE016F5F7F4FC801A7
:1012100008960E947A02882309F480C0F80115829A
:10122000109279012FB7F89480918D0190918E01E1
:10123000A0918F01B09190012FBF409188015091F2
:10124000890160918A0170918B01841B950BA60B1B
:10125000B70B0B97A105B10508F45DC02FB7F89443
:1012600080918D0190918E01A0918F01B09190019C
:101270002FBF8093880190938901A0938A01B09336
:101280008B0184E491E00E94860380917A01909121
:101290007B010E9488038AE491E00E94860380918A
:1012A0007C0190917D010E94880381E591E00E947C
:1012B000860380917E0190917F010E94880388E5DA
:1012C00091E00E94860380918001909181010E94AB
:1012D00088038FE591E00E948603809182019091BE
:1012E00083010E94880387E691E00E948603809133
:1012F0008401909185010E9488038FE691E00E940D
:10130000860380918601909187010E94880381E481
:1013100091E00E9433030E94ED011BCF10929501D2
:101320008091330239828A83FC82EB828D829E8295
:10133000AF82B8861986DB86CA8640E050E0BE01DF
:101340006F5F7F4FC80108960E947A0267CFA1E2C3
:101350001A2EAA1BBB1BFD010DC0AA1FBB1FEE1F2F
:10136000FF1FA217B307E407F50720F0A21BB30B7A
:10137000E40BF50B661F771F881F991F1A9469F7F6
:1013800060957095809590959B01AC01BD01CF0152
:101390000895052E97FB1EF400940E94E00957FD66
:1013A00007D00E94A70907FC03D04EF40C94E00973
:1013B00050954095309521953F4F4F4F5F4F089581
:1013C00090958095709561957F4F8F4F9F4F0895B1
:1013D0000E94F909A59F900DB49F900DA49F800DC8
:1013E000911D11240895EE0FFF1F0590F491E02D3B
:1013F0000994A29FB001B39FC001A39F700D811DEE
:101400001124911DB29F700D811D1124911D08950D
:101410000F931F93CF93DF938230910510F482E0F6
:1014200090E0E0916202F091630220E030E0A0E001
:10143000B0E0309719F14081518102811381481742
:101440005907C8F08417950769F4109731F0129680
:101450000C93129713961C9327C00093620210936B
:10146000630222C02115310519F04217530718F401
:101470009A01BD01EF01DF01F801DBCF2115310534
:10148000F9F0281B390B2430310580F48A819B81C7
:101490006115710521F0FB019383828304C0909351
:1014A000630280936202FE01329644C0FE01E20FA5
:1014B000F31F8193919322503109398328833AC0D5
:1014C0002091600230916102232B41F420910601AA
:1014D0003091070130936102209360022091040152
:1014E000309105012115310541F42DB73EB74091EA
:1014F000080150910901241B350BE0916002F09125
:101500006102E217F307A0F42E1B3F0B28173907DF
:1015100078F0AC014E5F5F4F2417350748F04E0F4F
:101520005F1F50936102409360028193919302C0C8
:10153000E0E0F0E0CF01DF91CF911F910F9108958E
:10154000CF93DF93009709F481C0FC013297138297
:101550001282A0916202B0916302109781F42081FF
:101560003181820F931F2091600230916102281710
:10157000390751F5F0936102E093600267C0ED0115
:1015800020E030E0CE17DF0740F44A815B819E0106
:1015900041155105F1F0EA01F5CFD383C2834081B3
:1015A0005181840F951FC817D90759F488819981F3
:1015B000840F951F0296918380838A819B819383F8
:1015C00082832115310529F4F0936302E0936202CE
:1015D0003DC0E901FB83EA8349915991C40FD51FAE
:1015E000EC17FD0761F480819181840F951F0296AD
:1015F000E90199838883828193819B838A83E0E0D8
:10160000F0E012968D919C911397009719F0FD01CF
:10161000DC01F7CF8D919C9111979D012E5F3F4F7B
:10162000820F931F209160023091610228173907C1
:1016300069F4309729F4109263021092620202C09A
:1016400013821282B0936102A0936002DF91CF9166
:10165000089581E090E0F8940C942E0BF894FFCF5D
:10166000E600E600000064028000000000007E0149
:10167000E7001501CB014601240138015B52784394
:10168000616C6C6261636B5D436F6D6D756E6963F8
:101690006174696F6E2053746174757320233A20EE
:1016A000000D0A00616363583D0009616363593DA1
:1016B00000096163635A3D000954656D703D00097E
:1016C0006779726F583D00096779726F593D00095B
:0816D0006779726F5A3D0000BA
:00000001FF
