:100000000C946A000C9423060C94FC050C9492004A
:100010000C9492000C9492000C9492000C94920018
:100020000C9492000C9492000C9492000C94920008
:100030000C9492000C9492000C9492000C949200F8
:100040000C94B2050C9492000C9470060C944A0621
:100050000C9492000C9492000C9492000C949200D8
:100060000C94A2060C949200084AD73B3BCE016E3A
:1000700084BCBFFDC12F3D6C74319ABD56833DDAFF
:100080003D00C77F11BED9E4BB4C3E916BAAAABE0E
:10009000000000803F0000000000240027002A002C
:1000A00000000000250028002B00040404040404C0
:1000B0000404020202020202030303030303010217
:1000C00004081020408001020408102001020408E6
:1000D00010209B0711241FBECFEFD4E0DEBFCDBFA1
:1000E00011E0A0E0B1E0ECE1FFE102C005900D926B
:1000F000A235B107D9F722E0A2E5B1E001C01D9217
:10010000A236B207E1F710E0CAE6D0E004C02197BA
:10011000FE010E94510EC936D107C9F70E946B0833
:100120000C948C0F0C9400008093520181E080931A
:10013000930108953FB7F89480918F0190919001B9
:10014000A0919101B091920126B5A89B05C02F3FC7
:1001500019F00196A11DB11D3FBFBA2FA92F982FED
:100160008827820F911DA11DB11DBC01CD0142E068
:10017000660F771F881F991F4A95D1F708958F92B0
:100180009F92AF92BF92CF92DF92EF92FF926B015C
:100190007C010E949A004B015C01C114D104E1046E
:1001A000F104F1F00E949A00DC01CB018819990951
:1001B000AA09BB09883E9340A105B10570F321E06F
:1001C000C21AD108E108F10888EE880E83E0981E73
:1001D000A11CB11CC114D104E104F10419F7DDCF55
:1001E000FF90EF90DF90CF90BF90AF909F908F9057
:1001F000089581E08093530108950895CF92DF928E
:10020000EF92FF920F931F93CF93DF936C017A01CC
:100210008B01C0E0D0E0CE15DF0581F0D8016D91F3
:100220008D01D601ED91FC910190F081E02DC60188
:100230000995892B11F02196EECF7E01C701DF9140
:10024000CF911F910F91FF90EF90DF90CF90089585
:10025000089580E090E00895FC01538D448D252F92
:1002600030E0842F90E0821B930B541710F0CF9650
:10027000089501970895FC01918D828D981761F082
:10028000828DDF01A80FB11D5D968C91928D9F5FCD
:100290009F73928F90E008958FEF9FEF0895FC0178
:1002A000918D828D981731F0828DE80FF11D858D2B
:1002B00090E008958FEF9FEF0895FC01918D228DBE
:1002C000892F90E0805C9F4F821B91098F73992743
:1002D000089584E991E00E945D0121E0892B09F4F1
:1002E00020E0822F0895FC01848DDF01A80FB11D4D
:1002F000A35ABF4F2C91848D90E001968F7399275C
:10030000848FA689B7892C93A089B1898C91837039
:1003100080648C93938D848D981306C00288F38932
:10032000E02D80818F7D80830895EF92FF920F935F
:100330001F93CF93DF93EC0181E0888F9B8D8C8D91
:10034000981305C0E889F989808185FD26C0F62EBD
:100350000B8D10E00F5F1F4F0F731127E02E8C8D58
:10036000E8120CC00FB607FCFACFE889F989808142
:1003700085FFF5CFCE010E947301F1CF8B8DFE0179
:10038000E80FF11DE35AFF4FF0829FB7F8940B8FEF
:10039000EA89FB89808180620AC09FB7F894EE8960
:1003A000FF896083E889F989808183708064808314
:1003B0009FBF81E090E0DF91CF911F910F91FF905F
:1003C000EF900895CF93DF93EC01888D8823C9F0D7
:1003D000EA89FB89808185FD05C0A889B9898C914E
:1003E00086FD0FC00FB607FCF5CF808185FFF2CFE9
:1003F000A889B9898C9185FFEDCFCE010E94730148
:10040000E7CFDF91CF91089580E090E0892B29F02C
:100410000E94690181110C9400000895FB01DC0128
:1004200040FF05C002C001900D9201900D92425014
:10043000D0F75040C0F70895FC019091BC009F7028
:10044000906D9093BC0094E68091BC0084FF0CC03A
:100450009150D1F79091BC009B7F9093BC009091FC
:10046000BC0094609093BC0010820895FC018389C5
:10047000882349F08189A489B5899BE0899FA00DD3
:10048000B11D112402C0A0E0B0E08C91811104C024
:1004900081E0808380E003C082E0808381E0129667
:1004A0002D913C9113973787268711969C91119730
:1004B000990F892B858314968D919D910D90BC91F8
:1004C000A02D82879387A487B5871682178210860E
:1004D000118611828091BC008F70806A8093BC006D
:1004E00008958091B9008E7F8093B9008091B90002
:1004F0008D7F8093B900662319F020E931E002C0B6
:1005000024E630E040E050E060E87EE380E090E008
:100510000E94270E20513109359527952093B80068
:1005200008958F929F92AF92BF92CF92DF92EF92F7
:10053000FF920F931F93CF93DF93EC018B014A013E
:100540008B892889821798F080EA96E8A1E0B0E0CC
:100550003B89321760F00197A109B109C9F7CE01B3
:100560000E941C02CE010E94360281E086C0D801A2
:100570008C91811150C08114910419F0F401D48040
:1005800001C0D12CF80184819581A681B7818D0DA0
:10059000911DA11DB11D8597A105B10508F06AC087
:1005A000CFB6F894AD2CB12C848195818A0D9B1D1A
:1005B0000E94660E7C01CFBE009709F45DC0F80171
:1005C00044815581628173818A0D9B1D0E940E02B8
:1005D000F401EA0DFB1D9E2D97013197822F891B97
:1005E0008D15B0F48081D9018D939D01D8011496A9
:1005F0004D915D916D917C9117974F5F5F4F6F4F5C
:100600007F4F14964D935D936D937C931797E5CF31
:10061000F801F382E282FFB6F894EB888C899D8919
:10062000009701F13B8928893217E0F42A894BE0D1
:1006300050E0B801FBE02F9F800D911D11240E9416
:100640000E028B898F5F8B8B8A89482F50E04F5F1A
:100650005F4F288930E04217530714F48F5F01C0C1
:1006600080E08A8BE11003C0CE010E943602FFBEFB
:10067000898103C083E001C084E0DF91CF911F91A5
:100680000F91FF90EF90DF90CF90BF90AF909F9031
:100690008F900895009769F0FC0101900020E9F720
:1006A0003197AF01481B590BBC0184E991E00C94D0
:1006B000FE0080E090E008958F929F92AF92BF92EB
:1006C0000F931F93CF93DF93CDB7DEB7A1970FB6EC
:1006D000F894DEBF0FBECDBF19A2423008F44AE045
:1006E0008E010F5D1F4F842E912CA12CB12CA501E2
:1006F00094010E94050EE62FB901CA0101501109AB
:10070000EA3014F4E05D01C0E95CD801EC93232BDE
:10071000242B252B61F7C8010E944A03A1960FB62E
:10072000F894DEBF0FBECDBFDF91CF911F910F9127
:10073000BF90AF909F908F9008958F929F92AF92AD
:10074000BF92CF92DF92EF92FF920F931F93CF93BE
:10075000DF936B017C01142F9B01AC010E94EB0D18
:10076000882319F08CE191E027C046015701E894F5
:10077000B7F82FEF3FEF4FE75FE7C501B4010E94E5
:10078000EB0D81110DC02FEF3FEF4FE75FE7C50184
:10079000B4010E94A80B18161CF480E291E00CC072
:1007A0002FEF3FEF4FE75FE4C701B6010E94270D2F
:1007B000181684F484E291E0DF91CF911F910F919C
:1007C000FF90EF90DF90CF90BF90AF909F908F9071
:1007D0000C944A032FEF3FEF4FE75FECC701B601E0
:1007E0000E94A80B87FDE6CF20E030E0A901C701F9
:1007F000B6010E94A80B87FF0BC06DE284E991E06F
:100800000E949501EC01F7FAF094F7F8F09402C019
:10081000C0E0D0E000E060E070E080E09FE310170F
:1008200041F020E030E040E251E40E94AD0B0F5F68
:10083000F6CFA70196010E94CA0A6B017C010E94B3
:100840001F0C4B015C014AE00E945C03C80FD91FDA
:100850001123B9F1C501B4010E944E0C9B01AC01FA
:10086000C701B6010E94C90A6B017C016EE284E9EE
:1008700091E00E949501C80FD91F20E030E040E2CE
:1008800051E4C701B6010E94340D4B015C010E9486
:100890001F0C6B01E12CF12C4AE0C701B6010E944C
:1008A0005C03C80FD91FC701B6010E944E0C9B0103
:1008B000AC01C501B4010E94C90A6B017C01115051
:1008C000E1F6CE01DF91CF911F910F91FF90EF9054
:1008D000DF90CF90BF90AF909F908F9008952F9210
:1008E0003F924F925F926F927F928F929F92AF92C0
:1008F000BF92CF92DF92EF92FF920F931F93CF930D
:10090000DF93CDB7DEB763970FB6F894DEBF0FBEA7
:10091000CDBF698B00915C0210915D02F801958159
:10092000911176C090913202992309F471C024E2AA
:10093000C22EC91A0FB607FC08C0CC2009F468C043
:10094000938D208D291709F463C0882E81E0F8016A
:1009500085838091330294819801285F3F4F19016C
:10096000981759F061E0811101C060E0C1010E9457
:10097000710280913302F8018483912CA12CB12C57
:10098000D12CE12CF12C9E01245F3F4F3B8B2A8B15
:10099000809132028C869D86AE86BF86888B26012A
:1009A0003701C114D104E104F10421F0412C512C90
:1009B000320143948091310219828A8321E130E02F
:1009C0002C0F3D1F3C832B834D825E826F82788685
:1009D00019861B861A86F80180819181A281B381D4
:1009E00088169906AA06BB0619F440E050E002C03A
:1009F0004A895B89BE016F5F7F4FC1010E949102EE
:100A0000811104C045284628472811F2F8011582B3
:100A100063960FB6F894DEBF0FBECDBFDF91CF91C6
:100A20001F910F91FF90EF90DF90CF90BF90AF900C
:100A30009F908F907F906F905F904F903F902F90FE
:100A40000895CF9381110CC0E4E5F1E0808191819C
:100A500090838183329681E0E236F807B9F717C0B8
:100A6000C82F88E291E00E944A036C2F70E080E07A
:100A700090E04AE00E945C038DE491E00E944A030A
:100A800064E670E080E090E0CF910C94BF00CF91DD
:100A900008950E94870F0F931F93CF93DF93EC016C
:100AA0008B89882349F089890C891D899BE0899F5E
:100AB000000D111D112402C000E010E0D8018C913E
:100AC000811108C012968D919C911397009711F097
:100AD0000E94FE0ED8011996ED91FC911A9730975D
:100AE00011F089810995F8012085222369F0898117
:100AF00081110AC030E040E050E00FB607FE22C08E
:100B0000CA01B9010E94BF008B89882389F08B89B3
:100B100081508B8B8989482F50E04F5F5F4F288928
:100B200030E04217530714F48F5F01C080E0898BD7
:100B30008B89882391F0CE01DF91CF911F910F9186
:100B40000C943602A0EABFE00E94460E6150710983
:100B500081099109C9F20000F9CFDF91CF911F916E
:100B60000F9108951F920F920FB60F9211242F9399
:100B70003F938F939F93AF93BF9380918B019091FD
:100B80008C01A0918D01B0918E0130918A0123E0FA
:100B9000230F2D3720F40196A11DB11D05C026E8B5
:100BA000230F0296A11DB11D20938A0180938B0112
:100BB00090938C01A0938D01B0938E0180918F0151
:100BC00090919001A0919101B09192010196A11D87
:100BD000B11D80938F0190939001A0939101B093E8
:100BE0009201BF91AF919F918F913F912F910F9063
:100BF0000FBE0F901F9018951F920F920FB60F9275
:100C000011242F933F934F935F936F937F938F9311
:100C10009F93AF93BF93EF93FF93E0910201F09105
:100C200003010995FF91EF91BF91AF919F918F9132
:100C30007F916F915F914F913F912F910F900FBED8
:100C40000F901F9018951F920F920FB60F921124BC
:100C50002F933F934F935F936F937F938F939F93C4
:100C6000AF93BF93EF93FF93E0910001F0910101E7
:100C70000995FF91EF91BF91AF919F918F917F91D6
:100C80006F915F914F913F912F910F900FBE0F90F9
:100C90001F9018951F920F920FB60F9211242F9349
:100CA0003F934F935F936F937F938F939F93AF93F4
:100CB000BF93EF93FF9384E991E00E947301FF914A
:100CC000EF91BF91AF919F918F917F916F915F91C4
:100CD0004F913F912F910F900FBE0F901F9018953D
:100CE0001F920F920FB60F9211242F938F939F9301
:100CF000EF93FF93E091A401F091A5018081E09131
:100D0000AA01F091AB0182FD12C090818091AD01EA
:100D10008F5F8F732091AE01821751F0E091AD018A
:100D2000F0E0EC56FE4F958F8093AD0101C08081BD
:100D3000FF91EF919F918F912F910F900FBE0F9088
:100D40001F9018951F920F920FB60F9211240F93B8
:100D50001F932F933F934F935F936F937F938F9343
:100D60009F93AF93BF93CF93DF93EF93FF93C09184
:100D70003402D09135028091B900887F883261F1C8
:100D800078F4803139F130F4882309F4B7C0883021
:100D900009F1BCC0883101F1803209F442C0B6C00B
:100DA000803409F48FC068F48033D9F1883309F0B6
:100DB000ADC08091BC008F7080688093BC001882A9
:100DC000A5C0803509F45BC08835A1F1883409F0ED
:100DD0009DC027C08D8122C04E815F816885798545
:100DE0008A859B85AC85BD85481759076A077B07AF
:100DF00008F086C02E853F858E819F81A885B985A4
:100E0000AC01BD014F5F5F4F6F4F7F4F4E835F83DC
:100E100068877987F901E80FF91F80818093BB000B
:100E200061C08091B900887F803311F086E067C08F
:100E300087E065C04E815F81688579858A859B855D
:100E4000AC85BD85481759076A077B0708F058C06D
:100E50004E855F858E819F81A885B9858C019D0116
:100E60000F5F1F4F2F4F3F4F0E831F8328873987F8
:100E70002091BB00FA01E80FF91F208341C04E8189
:100E80005F81688579858A859B85AC85BD85481796
:100E900059076A077B07B0F44E855F858E819F8175
:100EA000A885B9858C019D010F5F1F4F2F4F3F4FC4
:100EB0000E831F83288739872091BB00FA01E80F32
:100EC000F91F20834E815F81688579858A859B859E
:100ED000AC85BD850197A109B109481759076A0773
:100EE0007B0728F48091BC008F70806C04C08091D7
:100EF000BC008F7080688093BC0008C088E0898344
:100F0000CE010E941C02CE010E944B05FF91EF9181
:100F1000DF91CF91BF91AF919F918F917F916F9111
:100F20005F914F913F912F911F910F910F900FBEA5
:100F30000F901F901895109297011092960188EECD
:100F400093E0A0E0B0E08093980190939901A09382
:100F50009A01B0939B018EE091E09093950180936C
:100F6000940185EC90E09093A1018093A00184EC22
:100F700090E09093A3018093A20180EC90E0909385
:100F8000A5018093A40181EC90E09093A701809348
:100F9000A60182EC90E09093A9018093A80186ECD1
:100FA00090E09093AB018093AA011092AD01109252
:100FB000AE011092AF011092B00110923102109266
:100FC000320281E0809333029091540291117CC0EF
:100FD0004FEF5FEFBA0140933602509337026093B0
:100FE00038027093390280933A0210923B0224E651
:100FF00030E030933D0220933C0210923E0210926A
:101000003F028093400230934202209341028CE2DF
:1010100090E00E94660EFC019C01245D3F4F14820B
:101020001582168217821086128611863B962E171D
:101030003F07A9F7909353028093520284E0809374
:101040004E021092510210924F0210925002E0EDA7
:10105000F0E08491ECEBF0E0E491F0E0EE0FFF1FA4
:10106000E056FF4FA591B491EC91E82BEC93E1EDA4
:10107000F0E08491EDEBF0E0E491F0E0EE0FFF1F83
:10108000E056FF4FA591B491EC91E82BEC9361E011
:101090008EE392E00E9471028091BC008460809394
:1010A000BC008091BC0081608093BC008091BC003A
:1010B00080648093BC008EE392E09093350280932D
:1010C000340281E08093540286E392E090935D02C3
:1010D00080935C020895CF93DF93CDB7DEB764971A
:1010E0000FB6F894DEBF0FBECDBF789484B5826092
:1010F00084BD84B5816084BD85B5826085BD85B5BC
:10110000816085BD80916E00816080936E00109239
:1011100081008091810082608093810080918100B4
:101120008160809381008091800081608093800045
:101130008091B10084608093B1008091B0008160A3
:101140008093B00080917A00846080937A008091CF
:101150007A00826080937A0080917A008160809327
:101160007A0080917A00806880937A001092C100A2
:10117000E091A401F091A50182E08083E091A001BB
:10118000F091A1011082E091A201F091A30180E110
:1011900080831092AC01E091A801F091A90186E052
:1011A0008083E091A601F091A70180818061808316
:1011B000E091A601F091A701808188608083E09191
:1011C000A601F091A701808180688083E091A6014B
:1011D000F091A70180818F7D808388E68093310222
:1011E00081E08093320280933302E0915C02F091BF
:1011F0005D0284E690E0978386839487838767E027
:1012000089E10E946F0465E08AE10E946F0469E051
:101210008BE60E946F0460E987E30E946F0468E038
:101220008BE10E946F0468E08CE10E946F0461E032
:1012300088E30E946F0410925301E0ECF0E02491E7
:10124000ECEAF0E084918823C9F090E0880F991FC0
:10125000FC01EA56FF4F45915491FC01E056FF4FC7
:10126000A591B4919FB7F894FA018081322F3095FF
:1012700083238083EC91E22BEC939FBF89EF90E076
:101280009093010180930001809169008C7F8260BE
:1012900080936900E89A04E511E081E2282E85E058
:1012A000382E80915301882309F471C0E0905C02CC
:1012B000F0905D02D70115968C911597811165C04C
:1012C00080913202882309F460C00FB607FC13C076
:1012D0008D919D910D90BC91A02DCB97A105B1054D
:1012E00011F092E001C091E0F701238D808D821B07
:1012F000891708F44AC0E1E0D7011596EC931597D9
:101300008091330214969C91981769F061E08111E5
:1013100001C060E0C70108960E947102809133020B
:10132000D70114968C93F70180819181A281B381BA
:10133000CB97A105B10509F40EC180913102198244
:101340008A831C821B821D821E821F821886198638
:101350001B861A86809132022BE330E040E050E099
:101360002C873D874E875F87888BAE01445F5F4F38
:10137000BE016F5F7F4FC70108960E9491028823CC
:1013800009F4E9C0D70115961C92109253012FB7AA
:10139000F89480918B0190918C01A0918D01B09176
:1013A0008E012FBF40918601509187016091880185
:1013B00070918901841B950BA60BB70B0B97A105A8
:1013C000B10508F4C5C02FB7F89480918B019091B6
:1013D0008C01A0918D01B0918E012FBF8093860169
:1013E00090938701A0938801B09389016091540183
:1013F00070915501072E000C880B990B0E94500C20
:1014000020E030E040E059E30E94340D6B017C01A4
:10141000609362017093630180936401909365010E
:101420006091560170915701072E000C880B990BA3
:101430000E94500C20E030E040E059E30E94340D5F
:101440004B015C01609366017093670180936801B2
:10145000909369016091580170915901072E000C19
:10146000880B990B0E94500C20E030E040E059E3DB
:101470000E94340D60936A0170936B0180936C013C
:1014800090936D019B01AC010E94340D698B7A8BA6
:101490008B8B9C8BA7019601C701B6010E94340D6E
:1014A00029893A894B895C890E94CA0A0E94A70D42
:1014B0009B01AC01C501B4010E94490B21EE3EE243
:1014C00045E652E40E94340D2B013C0160937E01FD
:1014D00070937F018093800190938101A501940115
:1014E000C501B4010E94340D29893A894B895C8970
:1014F0000E94CA0A0E94A70D9B01AC01C701B60158
:101500000E94490B21EE3EE245E652E40E94340D72
:10151000609382017093830180938401909385018D
:1015200042E0C301B2010E949D0380E591E00E9468
:101530004A036091820170918301809184019091AE
:10154000850142E00E949D038DE491E00E944A03E0
:101550000E940402A6CE1092930180913102B1E064
:10156000B9838A831C830B832EE030E040E050E097
:101570002D833E834F83588719863B862A8640E019
:1015800050E0BE016F5F7F4FC70108960E94910235
:10159000F9CE5058BB27AA270E94E10A0C94ED0C03
:1015A0000E94DF0C38F00E94E60C20F039F49F3FD7
:1015B00019F426F40C94B50C0EF4E095E7FB0C94AA
:1015C000AF0CE92F0E94FE0C58F3BA17620773079D
:1015D0008407950720F079F4A6F50C94200D0EF4FD
:1015E000E0950B2EBA2FA02D0B01B90190010C0133
:1015F000CA01A0011124FF27591B99F0593F50F44B
:10160000503E68F11A16F040A22F232F342F4427A2
:10161000585FF3CF469537952795A795F04053959A
:10162000C9F77EF41F16BA0B620B730B840BBAF06A
:101630009150A1F0FF0FBB1F661F771F881FC2F7D5
:101640000EC0BA0F621F731F841F48F487957795E9
:101650006795B795F7959E3F08F0B0CF9395880FA3
:1016600008F09927EE0F9795879508950E94DF0C53
:1016700060F080E891E009F49EEF0E94E60C28F00B
:1016800040E851E071F45EEF0CC00C94B50C0C9482
:10169000200DE92FE0780E94FE0C40F3092E052A68
:1016A000B1F3261737074807590738F00E2E07F809
:1016B000E02569F0E025E0640AC0EF6307F80094D4
:1016C00007FADB01B9019D01DC01CA01AD01EF930D
:1016D0000E94C40B0E94ED0C0E94790B5F91552370
:1016E00039F02BED3FE049E450FD49EC0C94CA0A77
:1016F0000895DF93DD27B92FBF7740E85FE3161623
:10170000170648075B0718F4D92F0E942C0D9F93EA
:101710008F937F936F930E94E70DE8E6F0E00E94BD
:10172000B80C0E94ED0C2F913F914F915F910E9458
:10173000470DDD2351F09058A2EA2AED3FE049EC35
:101740005FE3D0785D270E94E10ADF910C94ED0CF5
:101750000E948B0C08F481E008950E94C10B0C9448
:10176000ED0C0E94E60C58F00E94DF0C40F029F4CA
:101770005F3F29F00C94AF0C51110C94210D0C9487
:10178000B50C0E94FE0C68F39923B1F3552391F335
:10179000951B550BBB27AA2762177307840738F0E0
:1017A0009F5F5F4F220F331F441FAA1FA9F335D03D
:1017B0000E2E3AF0E0E832D091505040E695001CF1
:1017C000CAF72BD0FE2F29D0660F771F881FBB1FAB
:1017D000261737074807AB07B0E809F0BB0B802D89
:1017E000BF01FF2793585F4F3AF09E3F510578F0B5
:1017F0000C94AF0C0C94210D5F3FE4F3983ED4F3AE
:10180000869577956795B795F7959F5FC9F7880F88
:10181000911D9695879597F90895E1E0660F771FDA
:10182000881FBB1F621773078407BA0720F0621B6B
:10183000730B840BBA0BEE1F88F7E09508950E9496
:10184000060D88F09F5798F0B92F9927B751B0F03F
:10185000E1F0660F771F881F991F1AF0BA95C9F734
:1018600014C0B13091F00E94200DB1E008950C94A5
:10187000200D672F782F8827B85F39F0B93FCCF358
:10188000869577956795B395D9F73EF490958095B1
:10189000709561957F4F8F4F9F4F0895E89409C0D1
:1018A00097FB3EF490958095709561957F4F8F4F93
:1018B0009F4F9923A9F0F92F96E9BB279395F695A9
:1018C000879577956795B795F111F8CFFAF4BB0F27
:1018D00011F460FF1BC06F5F7F4F8F4F9F4F16C08B
:1018E000882311F096E911C0772321F09EE8872F15
:1018F000762F05C0662371F096E8862F70E060E0D1
:101900002AF09A95660F771F881FDAF7880F969549
:10191000879597F90895990F0008550FAA0BE0E8ED
:10192000FEEF16161706E807F907C0F012161306A1
:10193000E407F50798F0621B730B840B950B39F4E1
:101940000A2661F0232B242B252B21F408950A2647
:1019500009F4A140A6958FEF811D811D089597F987
:101960009F6780E870E060E008959FEF80EC089545
:10197000DF93CF931F930F93FF92EF92DF927B0140
:101980008C01689406C0DA2EEF010E94470DFE011B
:10199000E894A5912591359145915591A6F3EF01D4
:1019A0000E94E10AFE019701A801DA9469F7DF902D
:1019B000EF90FF900F911F91CF91DF910895002438
:1019C0000A941616170618060906089500240A94A4
:1019D00012161306140605060895092E0394000C2A
:1019E00011F4882352F0BB0F40F4BF2B11F460FFB9
:1019F00004C06F5F7F4F8F4F9F4F089557FD9058E2
:101A0000440F551F59F05F3F71F04795880F97FBC2
:101A1000991F61F09F3F79F087950895121613067C
:101A20001406551FF2CF4695F1DF08C016161706AB
:101A30001806991FF1CF86957105610508940895E0
:101A4000E894BB2766277727CB0197F908950E9472
:101A50008B0C08F48FEF08959B01AC0160E070E0FF
:101A600080E89FE30C94AD0B0E94470D0C94ED0CA5
:101A70000E94DF0C38F00E94E60C20F0952311F054
:101A80000C94AF0C0C94B50C11240C94210D0E94F5
:101A9000FE0C70F3959FC1F3950F50E0551F629FA8
:101AA000F001729FBB27F00DB11D639FAA27F00DB7
:101AB000B11DAA1F649F6627B00DA11D661F829FDE
:101AC0002227B00DA11D621F739FB00DA11D621FC3
:101AD000839FA00D611D221F749F3327A00D611DE0
:101AE000231F849F600D211D822F762F6A2F1124C2
:101AF0009F5750409AF0F1F088234AF0EE0FFF1FF5
:101B0000BB1F661F771F881F91505040A9F79E3F4B
:101B1000510580F00C94AF0C0C94210D5F3FE4F361
:101B2000983ED4F3869577956795B795F795E795A1
:101B30009F5FC1F7FE2B880F911D9695879597F9AA
:101B4000089519F416F40C94B50C0C94F00D0E9441
:101B5000060DB8F39923C9F3B6F39F57550B87FFCA
:101B60000E94FE0D0024A0E640EA900180585695A0
:101B7000979528F4805C660F771F881F20F0261742
:101B80003707480730F4621B730B840B2029312977
:101B90004A2BA69517940794202531254A2758F7F4
:101BA000660F771F881F20F026173707480730F485
:101BB000620B730B840B200D311D411DA09581F725
:101BC000B901842F9158880F9695879508959B01A8
:101BD000AC010C94340D0E948B0C880B990B08956A
:101BE0009F3F31F0915020F4879577956795B79591
:101BF000880F911D9695879597F9089591505040BB
:101C0000660F771F881FD2F70895A1E21A2EAA1B2C
:101C1000BB1BFD010DC0AA1FBB1FEE1FFF1FA2179C
:101C2000B307E407F50720F0A21BB30BE40BF50B99
:101C3000661F771F881F991F1A9469F76095709522
:101C4000809590959B01AC01BD01CF010895052EB3
:101C500097FB1EF400940E943E0E57FD07D00E9491
:101C6000050E07FC03D04EF40C943E0E50954095A3
:101C7000309521953F4F4F4F5F4F08959095809538
:101C8000709561957F4F8F4F9F4F08950E94570E1B
:101C9000A59F900DB49F900DA49F800D911D1124C0
:101CA0000895EE0FFF1F0590F491E02D0994A29F77
:101CB000B001B39FC001A39F700D811D1124911D20
:101CC000B29F700D811D1124911D08950F931F93D4
:101CD000CF93DF938230910510F482E090E0E091A1
:101CE0006002F091610220E030E0A0E0B0E03097C7
:101CF00019F1408151810281138148175907C8F0B9
:101D00008417950769F4109731F012960C93129787
:101D100013961C9327C0009360021093610222C0A7
:101D20002115310519F04217530718F49A01BD0126
:101D3000EF01DF01F801DBCF21153105F9F0281B98
:101D4000390B2430310580F48A819B81611571053E
:101D500021F0FB019383828304C0909361028093FE
:101D60006002FE01329644C0FE01E20FF31F819330
:101D7000919322503109398328833AC020915E0221
:101D800030915F02232B41F420910601309107012D
:101D900030935F0220935E0220910401309105018F
:101DA0002115310541F42DB73EB7409108015091FE
:101DB0000901241B350BE0915E02F0915F02E217EE
:101DC000F307A0F42E1B3F0B2817390778F0AC015E
:101DD0004E5F5F4F2417350748F04E0F5F1F50933B
:101DE0005F0240935E028193919302C0E0E0F0E0D5
:101DF000CF01DF91CF911F910F910895CF93DF9382
:101E0000009709F481C0FC01329713821282A091DD
:101E10006002B0916102109781F420813181820FBC
:101E2000931F20915E0230915F022817390751F508
:101E3000F0935F02E0935E0267C0ED0120E030E0C6
:101E4000CE17DF0740F44A815B819E0141155105A1
:101E5000F1F0EA01F5CFD383C28340815181840F31
:101E6000951FC817D90759F488819981840F951F48
:101E70000296918380838A819B819383828321153B
:101E8000310529F4F0936102E09360023DC0E9015D
:101E9000FB83EA8349915991C40FD51FEC17FD07C5
:101EA00061F480819181840F951F0296E9019983E5
:101EB0008883828193819B838A83E0E0F0E012969D
:101EC0008D919C911397009719F0FD01DC01F7CFDC
:101ED0008D919C9111979D012E5F3F4F820F931F13
:101EE00020915E0230915F022817390769F430971C
:101EF00029F4109261021092600202C013821282D1
:101F0000B0935F02A0935E02DF91CF91089581E0CC
:0C1F100090E0F8940C948C0FF894FFCF34
:101F1C00FD00FD0000006202800000000000950141
:101F2C00FE002C01E2015D013B014F016E616E0070
:101F3C00696E66006F7666005B527843616C6C620A
:101F4C0061636B5D436F6D6D756E69636174696F11
:101F5C006E2053746174757320233A20000D0A00AF
:021F6C0009006A
:00000001FF
