:100000000C9462000C9423060C94FC050C948A005A
:100010000C948A000C948A000C948A000C948A0038
:100020000C948A000C948A000C948A000C948A0028
:100030000C948A000C948A000C948A000C948A0018
:100040000C94B2050C948A000C9470060C944A0629
:100050000C948A000C948A000C948A000C948A00F8
:100060000C94A2060C948A000000000023002600D5
:10007000290000000000240027002A0000000008DA
:10008000000201000003040700000000000000005F
:1000900000000000250028002B00040404040404D0
:1000A0000404020202020202030303030303010227
:1000B00004081020408001020408102001020408F6
:1000C00010209B0711241FBECFEFD4E0DEBFCDBFB1
:1000D00011E0A0E0B1E0EAE1F7E102C005900D9285
:1000E000A035B107D9F722E0A0E5B1E001C01D922B
:1000F000AE38B207E1F710E0C2E6D0E004C02197C5
:10010000FE010E94500AC136D107C9F70E946C084F
:100110000C948B0B0C9400008093500181E0809331
:10012000BF010895833081F028F4813099F0823046
:10013000A1F008958730A9F08830B9F08430D1F467
:10014000809180008F7D03C0809180008F778093A5
:100150008000089584B58F7702C084B58F7D84BDFB
:1001600008958091B0008F7703C08091B0008F7D9B
:100170008093B00008951F93CF93DF93282F30E032
:10018000F901E458FF4F8491F901E255FF4FD491F2
:10019000F901E656FF4FC491CC23C1F0162F81110F
:1001A0000E949200EC2FF0E0EE0FFF1FE057FF4F90
:1001B000A591B4919FB7F894111104C08C91D0957A
:1001C000D82302C0EC91DE2BDC939FBFDF91CF914F
:1001D0001F910895CF93DF9390E0FC01E255FF4F0C
:1001E0002491FC01E656FF4F8491882361F190E051
:1001F000880F991FFC01EE58FF4FC591D491FC0167
:10020000E057FF4FA591B491611109C09FB7F894D1
:100210008881209582238883EC912E230BC0623045
:1002200061F49FB7F8948881322F309583238883B7
:10023000EC912E2B2C939FBF06C08FB7F894E881CA
:100240002E2B28838FBFDF91CF9108953FB7F8946D
:100250008091BB019091BC01A091BD01B091BE0104
:1002600026B5A89B05C02F3F19F00196A11DB11D11
:100270003FBFBA2FA92F982F8827820F911DA11D4C
:10028000B11DBC01CD0142E0660F771F881F991F89
:100290004A95D1F708950895CF92DF92EF92FF9299
:1002A0000F931F93CF93DF936C017A018B01C0E012
:1002B000D0E0CE15DF0581F0D8016D918D01D6011A
:1002C000ED91FC910190F081E02DC6010995892BFB
:1002D00011F02196EECF7E01C701DF91CF911F91E2
:1002E0000F91FF90EF90DF90CF900895089580E0F8
:1002F00090E00895FC01538D448D252F30E0842F2C
:1003000090E0821B930B541710F0CF96089501973D
:100310000895FC01918D828D981761F0828DDF0127
:10032000A80FB11D5D968C91928D9F5F9F73928FE8
:1003300090E008958FEF9FEF0895FC01918D828DDD
:10034000981731F0828DE80FF11D858D90E00895AA
:100350008FEF9FEF0895FC01918D228D892F90E002
:10036000805C9F4F821B91098F739927089580ECC1
:1003700091E00E94AB0121E0892B09F420E0822F5B
:100380000895FC01848DDF01A80FB11DA35ABF4F52
:100390002C91848D90E001968F739927848FA68984
:1003A000B7892C93A089B1898C91837080648C93D8
:1003B000938D848D981306C00288F389E02D808187
:1003C0008F7D80830895EF92FF920F931F93CF93B9
:1003D000DF93EC0181E0888F9B8D8C8D981305C095
:1003E000E889F989808185FD26C0F62E0B8D10E005
:1003F0000F5F1F4F0F731127E02E8C8DE8120CC07A
:100400000FB607FCFACFE889F989808185FFF5CF1F
:10041000CE010E94C101F1CF8B8DFE01E80FF11DCD
:10042000E35AFF4FF0829FB7F8940B8FEA89FB895C
:10043000808180620AC09FB7F894EE89FF8960834B
:10044000E889F98980818370806480839FBF81E01F
:1004500090E0DF91CF911F910F91FF90EF90089561
:10046000CF93DF93EC01888D8823C9F0EA89FB895B
:10047000808185FD05C0A889B9898C9186FD0FC052
:100480000FB607FCF5CF808185FFF2CFA889B98927
:100490008C9185FFEDCFCE010E94C101E7CFDF91A6
:1004A000CF91089580E090E0892B29F00E94B70158
:1004B00081110C9400000895FB01DC0140FF05C090
:1004C00002C001900D9201900D924250D0F7504021
:1004D000C0F70895FC019091BC009F70906D9093BF
:1004E000BC0094E68091BC0084FF0CC09150D1F711
:1004F0009091BC009B7F9093BC009091BC00946055
:100500009093BC0010820895FC018389882349F0F0
:100510008189A489B5899BE0899FA00DB11D112413
:1005200002C0A0E0B0E08C91811104C081E0808322
:1005300080E003C082E0808381E012962D913C919F
:1005400013973787268711969C911197990F892BBE
:10055000858314968D919D910D90BC91A02D8287DD
:100560009387A487B5871682178210861186118219
:100570008091BC008F70806A8093BC000895809148
:10058000B9008E7F8093B9008091B9008D7F8093F0
:10059000B900662319F020E931E002C024E630E01A
:1005A00040E050E060E87EE380E090E00E94260AB0
:1005B00020513109359527952093B8000895CF93A0
:1005C000DF93E9E8F0E08491EBEBF0E0D491E7EA27
:1005D000F0E0C491CC23A1F081110E949200EC2F95
:1005E000F0E0EE0FFF1FE859FF4FA591B491EC9199
:1005F000ED2391E080E009F490E0692F782F02C0AC
:1006000060E070E081E068278DE00E94BB0060E060
:100610008CE00E94BB0081E08093B501DF91CF9117
:1006200008958F929F92AF92BF92CF92DF92EF92F6
:10063000FF920F931F93CF93DF93EC018B014A013D
:100640008B892889821798F080EA96E8A1E0B0E0CB
:100650003B89321760F00197A109B109C9F7CE01B2
:100660000E946A02CE010E94840281E086C0D80105
:100670008C91811150C08114910419F0F401D4803F
:1006800001C0D12CF80184819581A681B7818D0D9F
:10069000911DA11DB11D8597A105B10508F06AC086
:1006A000CFB6F894AD2CB12C848195818A0D9B1D19
:1006B0000E94650A7C01CFBE009709F45DC0F80175
:1006C00044815581628173818A0D9B1D0E945C0269
:1006D000F401EA0DFB1D9E2D97013197822F891B96
:1006E0008D15B0F48081D9018D939D01D8011496A8
:1006F0004D915D916D917C9117974F5F5F4F6F4F5B
:100700007F4F14964D935D936D937C931797E5CF30
:10071000F801F382E282FFB6F894EB888C899D8918
:10072000009701F13B8928893217E0F42A894BE0D0
:1007300050E0B801FBE02F9F800D911D11240E9415
:100740005C028B898F5F8B8B8A89482F50E04F5FCB
:100750005F4F288930E04217530714F48F5F01C0C0
:1007600080E08A8BE11003C0CE010E948402FFBEAC
:10077000898103C083E001C084E0DF91CF911F91A4
:100780000F91FF90EF90DF90CF90BF90AF909F9030
:100790008F900895009769F0FC0101900020E9F71F
:1007A0003197AF01481B590BBC0180EC91E00C94D0
:1007B0004C0180E090E008958F929F92AF92BF929B
:1007C0000F931F93CF93DF93CDB7DEB7A1970FB6EB
:1007D000F894DEBF0FBECDBF19A2423008F44AE044
:1007E0008E010F5D1F4F842E912CA12CB12CA501E1
:1007F00094010E94040AE62FB901CA0101501109AF
:10080000EA3014F4E05D01C0E95CD801EC93232BDD
:10081000242B252B61F7C8010E94CA03A1960FB6AD
:10082000F894DEBF0FBECDBFDF91CF911F910F9126
:10083000BF90AF909F908F9008952F923F924F92CC
:100840005F926F927F928F929F92AF92BF92CF9260
:10085000DF92EF92FF920F931F93CF93DF93CDB769
:10086000DEB764970FB6F894DEBF0FBECDBFFC01B4
:10087000858181117BC080918802882309F474C02E
:1008800094E2C92EC81A0FB607FC08C0CC2009F4A0
:100890006DC0838D908D981709F468C03C8B2B8BAD
:1008A0004A015B018F0181E08583809189029481F7
:1008B0009F01285F3F4F1901981759F061E081119E
:1008C00001C060E0C1010E94BF0280918902F8016D
:1008D0008483D12CE12CF12C9E01245F3F4F3A8B75
:1008E000298B809188028C869D86AE86BF86888BF8
:1008F00026013701C114D104E104F10421F0412C97
:10090000512C320143948091870219828A832B896A
:100910003C893C832B834D825E826F827886198668
:100920001B861A86F80180819181A281B381881685
:100930009906AA06BB0619F440E050E002C04989B6
:100940005A89BE016F5F7F4FC1010E941103882346
:1009500019F0F80115820BC045284628472809F2EE
:10096000F801158280E003C084E001C081E0649654
:100970000FB6F894DEBF0FBECDBFDF91CF911F91B0
:100980000F91FF90EF90DF90CF90BF90AF909F902E
:100990008F907F906F905F904F903F902F90089531
:1009A000CF92DF92EF92FF92CF93C82F61E08CE05D
:1009B0000E94BB00C1112DC08CE191E00E94CA03CE
:1009C00080915101909152019827892798276C01B5
:1009D000092E000CEE08FF0897FF0DC06DE280ECB9
:1009E00091E00E94E30166277727CB016C197D090E
:1009F0008E099F0916C04AE0C701B6010E94DC03B8
:100A000087E291E0CF91FF90EF90DF90CF900C9430
:100A1000CA038AE291E00E94CA036C2F70E080E072
:100A200090E04AE0EBCF0E94860B8F929F92AF92AC
:100A3000BF92CF92DF92EF92FF92CF93DF93EC01C0
:100A40008B89882349F08989EC88FD882BE0829F77
:100A5000E00CF11C112402C0E12CF12CD7018C9187
:100A6000811108C012968D919C911397009711F0F7
:100A70000E94FD0AD7011996ED91FC911A973097C3
:100A800011F089810995F7012085222389F1898157
:100A900081112EC030E040E050E00FB607FE4CC0A0
:100AA00069017A010E9426014B015C010E94260126
:100AB000DC01CB0188199909AA09BB09883E93403A
:100AC000A105B10580F0F1E0CF1AD108E108F108E5
:100AD00028EE820E23E0921EA11CB11CC114D10489
:100AE000E104F10419F7C114D104E104F104F1F6B1
:100AF0008B89882389F08B8981508B8B8989482F3A
:100B000050E04F5F5F4F288930E04217530714F4DD
:100B10008F5F01C080E0898B8B898823C1F0CE0173
:100B2000DF91CF91FF90EF90DF90CF90BF90AF908B
:100B30009F908F900C948402A0EABFE00E94450A27
:100B4000615071098109910999F20000F9CFDF9193
:100B5000CF91FF90EF90DF90CF90BF90AF909F909C
:100B60008F9008951F920F920FB60F9211242F931A
:100B70003F938F939F93AF93BF938091B7019091D1
:100B8000B801A091B901B091BA013091B60123E04A
:100B9000230F2D3720F40196A11DB11D05C026E8B5
:100BA000230F0296A11DB11D2093B6018093B701BA
:100BB0009093B801A093B901B093BA018091BB01A1
:100BC0009091BC01A091BD01B091BE010196A11D03
:100BD000B11D8093BB019093BC01A093BD01B09364
:100BE000BE01BF91AF919F918F913F912F910F9037
:100BF0000FBE0F901F9018951F920F920FB60F9275
:100C000011242F933F934F935F936F937F938F9311
:100C10009F93AF93BF93EF93FF93E0910201F09105
:100C200003010995FF91EF91BF91AF919F918F9132
:100C30007F916F915F914F913F912F910F900FBED8
:100C40000F901F9018951F920F920FB60F921124BC
:100C50002F933F934F935F936F937F938F939F93C4
:100C6000AF93BF93EF93FF93E0910001F0910101E7
:100C70000995FF91EF91BF91AF919F918F917F91D6
:100C80006F915F914F913F912F910F900FBE0F90F9
:100C90001F9018951F920F920FB60F9211242F9349
:100CA0003F934F935F936F937F938F939F93AF93F4
:100CB000BF93EF93FF9380EC91E00E94C101FF91FD
:100CC000EF91BF91AF919F918F917F916F915F91C4
:100CD0004F913F912F910F900FBE0F901F9018953D
:100CE0001F920F920FB60F9211242F938F939F9301
:100CF000EF93FF93E091D001F091D1018081E091D9
:100D0000D601F091D70182FD12C090818091D90166
:100D10008F5F8F732091DA01821751F0E091D90132
:100D2000F0E0E054FE4F958F8093D90101C080819F
:100D3000FF91EF919F918F912F910F900FBE0F9088
:100D40001F9018951F920F920FB60F9211240F93B8
:100D50001F932F933F934F935F936F937F938F9343
:100D60009F93AF93BF93CF93DF93EF93FF93C09184
:100D70005D02D0915E028091B900887F883261F176
:100D800078F4803139F130F4882309F4B7C0883021
:100D900009F1BCC0883101F1803209F442C0B6C00B
:100DA000803409F48FC068F48033D9F1883309F0B6
:100DB000ADC08091BC008F7080688093BC001882A9
:100DC000A5C0803509F45BC08835A1F1883409F0ED
:100DD0009DC027C08D8122C04E815F816885798545
:100DE0008A859B85AC85BD85481759076A077B07AF
:100DF00008F086C02E853F858E819F81A885B985A4
:100E0000AC01BD014F5F5F4F6F4F7F4F4E835F83DC
:100E100068877987F901E80FF91F80818093BB000B
:100E200061C08091B900887F803311F086E067C08F
:100E300087E065C04E815F81688579858A859B855D
:100E4000AC85BD85481759076A077B0708F058C06D
:100E50004E855F858E819F81A885B9858C019D0116
:100E60000F5F1F4F2F4F3F4F0E831F8328873987F8
:100E70002091BB00FA01E80FF91F208341C04E8189
:100E80005F81688579858A859B85AC85BD85481796
:100E900059076A077B07B0F44E855F858E819F8175
:100EA000A885B9858C019D010F5F1F4F2F4F3F4FC4
:100EB0000E831F83288739872091BB00FA01E80F32
:100EC000F91F20834E815F81688579858A859B859E
:100ED000AC85BD850197A109B109481759076A0773
:100EE0007B0728F48091BC008F70806C04C08091D7
:100EF000BC008F7080688093BC0008C088E0898344
:100F0000CE010E946A02CE010E941505FF91EF9169
:100F1000DF91CF91BF91AF919F918F917F916F9111
:100F20005F914F913F912F911F910F910F900FBEA5
:100F30000F901F9018951092C3011092C20188EE75
:100F400093E0A0E0B0E08093C4019093C501A0932A
:100F5000C601B093C7018EE091E09093C1018093E8
:100F6000C00185EC90E09093CD018093CC0184EC9E
:100F700090E09093CF018093CE0180EC90E090932D
:100F8000D1018093D00181EC90E09093D3018093C4
:100F9000D20182EC90E09093D5018093D40186EC4D
:100FA00090E09093D7018093D6011092D9011092CE
:100FB000DA011092DB011092DC0180917D02811137
:100FC0007DC08FEF9FEFDC0180935F029093600202
:100FD000A0936102B093620221E020936302109219
:100FE000640284E690E0909366028093650210921A
:100FF0006702109268022093690290936B028093BB
:101000006A028CE290E00E94650AFC019C01245D6A
:101010003F4F14821582168217821086128611861F
:101020003B962E173F07A9F790937C0280937B0293
:1010300084E08093770210927A02109278021092E4
:101040007902E0ECF0E08491ECEAF0E0E491F0E089
:10105000EE0FFF1FE057FF4FA591B491EC91E82BE5
:10106000EC93E1ECF0E08491EDEAF0E0E491F0E063
:10107000EE0FFF1FE057FF4FA591B491EC91E82BC5
:10108000EC9361E087E692E00E94BF028091BC0091
:1010900084608093BC008091BC0081608093BC0020
:1010A0008091BC0080648093BC0087E692E09093BE
:1010B0005E0280935D0281E080937D028FE592E085
:1010C0009093860280938502109287021092880284
:1010D00081E0809389020895CF93DF93CDB7DEB787
:1010E00060970FB6F894DEBF0FBECDBF789484B57D
:1010F000826084BD84B5816084BD85B5826085BD14
:1011000085B5816085BD80916E00816080936E00A1
:101110001092810080918100826080938100809193
:101120008100816080938100809180008160809344
:1011300080008091B10084608093B1008091B00004
:1011400081608093B00080917A00846080937A00FF
:1011500080917A00826080937A0080917A00816029
:1011600080937A0080917A00806880937A00109250
:10117000C10088E680938702FF24F394F0928802EE
:10118000F092890200918502109186028CE291E032
:10119000F801978386839487838787E089839E01FC
:1011A0002F5F3F4F49E150E060E070E0C8010E94CE
:1011B0001D0489E0E82EE9829E012F5F3F4F4BE638
:1011C00050E060E070E0C8010E941D0480E989835E
:1011D0009E012F5F3F4F47E350E060E070E0C801A1
:1011E0000E941D0498E0D92ED9829E012F5F3F4FA7
:1011F0004BE150E060E070E0C8010E941D04D9821C
:101200009E012F5F3F4F4CE150E060E070E0C8016D
:101210000E941D04E9829E012F5F3F4F4BE650E084
:1012200060E070E0C8010E941D04F9829E012F5FFA
:101230003F4F48E350E060E070E0C8010E941D04A9
:10124000E091D001F091D10182E08083E091CC0166
:10125000F091CD011082E091CE01F091CF0180E1BB
:1012600080831092D801E091D401F091D50186E0FD
:101270008083E091D201F091D301808180618083ED
:10128000E091D201F091D301808188608083E09168
:10129000D201F091D301808180688083E091D201F6
:1012A000F091D30180818F7D808361E08DE00E9489
:1012B000EA0061E08CE00E94EA0062E082E00E94C5
:1012C000EA008FED92E090930101809300018091FC
:1012D00069008C7F826080936900E89A332433949C
:1012E00021E5E22E21E0F22E3EE0832E912CA12C6E
:1012F000B12C40EDC42E44E0D42E5BE3452E512C9E
:10130000612C712C8091B501882309F461C0009192
:10131000850210918602F8018581811157C0809164
:101320008802882309F452C00FB607FC11C08081DF
:101330009181A281B381CB97A105B10511F092E013
:1013400001C091E0F801238D808D821B8917F0F197
:10135000F8013582809189029481981761F061E0EB
:10136000811101C060E0C80108960E94BF0280910F
:101370008902F8018483F80180819181A281B3817F
:10138000CB97A105B10539F18091870219828A8333
:101390001C821B821D821E821F82188619861B8654
:1013A0001A86809188024C865D866E867F86888B41
:1013B000AE01445F5F4FBE016F5F7F4FC80108966B
:1013C0000E941103882339F0F80115821092B501AB
:1013D0000E94520297CF1092BF01809187023982FA
:1013E0008A83FC82EB828D829E82AF82B8861986C8
:1013F000DB86CA8640E050E0BE016F5F7F4FC801C8
:1014000008960E941103E0CFA1E21A2EAA1BBB1B73
:10141000FD010DC0AA1FBB1FEE1FFF1FA217B307C0
:10142000E407F50720F0A21BB30BE40BF50B661FD6
:10143000771F881F991F1A9469F76095709580959A
:1014400090959B01AC01BD01CF010895052E97FB3E
:101450001EF400940E943D0A57FD07D00E94040A22
:1014600007FC03D04EF40C943D0A509540953095FE
:1014700021953F4F4F4F5F4F089590958095709500
:1014800061957F4F8F4F9F4F08950E94560AA59FE9
:10149000900DB49F900DA49F800D911D112408956F
:1014A000EE0FFF1F0590F491E02D0994A29FB0016B
:1014B000B39FC001A39F700D811D1124911DB29F88
:1014C000700D811D1124911D08950F931F93CF93CB
:1014D000DF938230910510F482E090E0E0918C027D
:1014E000F0918D0220E030E0A0E0B0E0309719F1FB
:1014F000408151810281138148175907C8F0841730
:10150000950769F4109731F012960C931297139681
:101510001C9327C000938C0210938D0222C02115CA
:10152000310519F04217530718F49A01BD01EF0174
:10153000DF01F801DBCF21153105F9F0281B390B4C
:101540002430310580F48A819B816115710521F079
:10155000FB019383828304C090938D0280938C025D
:10156000FE01329644C0FE01E20FF31F8193919376
:1015700022503109398328833AC020918A02309160
:101580008B02232B41F42091060130910701309307
:101590008B0220938A0220910401309105012115CC
:1015A000310541F42DB73EB7409108015091090132
:1015B000241B350BE0918A02F0918B02E217F307AE
:1015C000A0F42E1B3F0B2817390778F0AC014E5FB3
:1015D0005F4F2417350748F04E0F5F1F50938B0263
:1015E00040938A028193919302C0E0E0F0E0CF0142
:1015F000DF91CF911F910F910895CF93DF930097C3
:1016000009F481C0FC01329713821282A0918C02EE
:10161000B0918D02109781F420813181820F931F48
:1016200020918A0230918B022817390751F5F093E7
:101630008B02E0938A0267C0ED0120E030E0CE1714
:10164000DF0740F44A815B819E0141155105F1F0AD
:10165000EA01F5CFD383C28340815181840F951F66
:10166000C817D90759F488819981840F951F02966C
:10167000918380838A819B819383828321153105A5
:1016800029F4F0938D02E0938C023DC0E901FB83C5
:10169000EA8349915991C40FD51FEC17FD0761F4F6
:1016A00080819181840F951F0296E9019983888337
:1016B000828193819B838A83E0E0F0E012968D9192
:1016C0009C911397009719F0FD01DC01F7CF8D91E4
:1016D0009C9111979D012E5F3F4F820F931F209188
:1016E0008A0230918B022817390769F4309729F460
:1016F00010928D0210928C0202C013821282B0935B
:101700008B02A0938A02DF91CF91089581E090E04F
:0A171000F8940C948B0BF894FFCFB3
:10171A004B014B0100008E02800000000000E30133
:10172A004C017A013002AB0189019D015265636562
:10173A00697665643A20000D0A005B527843616C51
:10174A006C6261636B5D436F6D6D756E6963617425
:10175A00696F6E2053746174757320233A200000F8
:00000001FF
